:020000040000FA
:08000000803102288731F52F41
:10019000163021009700080071082100CF00700878
:1001A000CE00080071082100D3007008D2000800BA
:1001B00071082100D1007008D0000800813127218A
:1001C00080312400961408008131272180312400D9
:1001D00016160800813127218031240016140800EA
:1001E000813127218031240016150800F1007108A3
:1001F0008131122180310800640080010131890BB6
:10020000FD2800347A3021009900980122009601DF
:100210000800F0008131272181317008240091000D
:1002200016080800F0002000111E172918291329AC
:10023000700823009A00080021000E168E15283041
:1002400024009500273092009601940108002400B4
:1002500014192B292C29272916081F39031D312988
:100260003229272908008131D321813181310221AE
:1002700081318031C82081318131F52181310800FF
:1002800068302000EA006A08ED006708DF006608B1
:10029000DE006D30EA006A08E00000308231C122E1
:1002A000813108002000A500FB01FB0AFC01FC0ACB
:1002B0002508823140228131FD007D082000A60002
:1002C000261B632965290130662900300800F600E5
:1002D0007608860087017108C03F7208C13F760822
:1002E000023E860087017308C03F7408C13F700852
:1002F000F5007608043E8600870175088100080035
:10030000F4007408F2007208F3008A290130F20048
:100310007208F4077408860087010108031D9129FB
:100320009229862973087402F000F101F01BF10391
:1003300008007408803AF50080307502031DA22978
:10034000013073020318A529A629B2297309F50003
:100350007409F600F50A0319F60A7508F300760821
:10036000F400B2290800813127218131240096153B
:1003700081312721813124001108F200F301720834
:10038000F4007308F5008131272181317018C929E3
:10039000CC2924009616CE29240096128031E42020
:1003A000813174080800220090018F018C018D01B9
:1003B0008E010F3021009000FF308C00FF308D0047
:1003C000BF308E00FF308F00FF3023008F003F30A2
:1003D0008D00073090003F308C00240090018D018B
:1003E0002100951722009D010800083023009F007E
:1003F00080309D0024309E00A0309B0001309C0086
:100400000030F0000030F1008031D2208131003026
:10041000F0000030F1008031D82081310030F00050
:100420000030F1008031CC2081312100A80108008A
:100430002000A300A101A201302A2008FB00FC013A
:100440007B08F2007C08F3007A08FD007D08F400C8
:1004500083312923823101302000A1070030A23DE1
:1004600021082307FB007B08860087010108FC00A8
:100470007C08A0002008031D3E2A3F2A1D2A0800F0
:100480002000A4007B08A0002008A2002408023E4F
:10049000860087011600010403194F2A502A662A94
:1004A000240886008701443FF6002230A00020087F
:1004B000F7007C08A1002108F8002408023E86000D
:1004C0008701413F8A00403F0A0082312000220814
:1004D00008007708F9007908FA008031EA208231B3
:1004E00076358131092182317A0886008701010839
:1004F0008131092182318031DE2082310314760D71
:100500008131092182310130F0000030F100813168
:10051000B3218231F9007A088600870179088100C9
:100520008031F020823108002000A900AA012908AA
:10053000813152218231003A03199F2AA02AAC2A24
:10054000FB01FC01FC0A2000290882314022823193
:100550002000A7002708AA00803020002A02031CE0
:10056000B22AB32ABB2A2A090138FF3A013EA70062
:100570002708A800BF2A2A08A7002708A8002808DB
:1005800008002000E3005F08E5005E08E4002100A9
:10059000A001A101DF2A6430E1006108CE006008FB
:1005A000E2006208CF0063088331C123823120005A
:1005B0004E082100A00720004F082100A13D200087
:1005C00064088400650885001200031DE82AE92AF2
:1005D000CB2A210021082000DF0021002008200074
:1005E000DE00080081313321823181311C218231CA
:1005F0004D302000EE006E08F0000030F1000030B9
:10060000F2006930F3000230F400C9308131672113
:10061000823103302000EF000830EE007730890B84
:100620000F2BEE0B0F2BEF0B0F2B00302000E600F3
:100630008830E700C9308231942282312000E800FE
:10064000E901E81BE903813140218231092B803126
:100650000228740803192D2B2E2B332B7408031D2D
:10066000322B332B382B72088031F6208331672BE5
:100670007408033E86008701160001040319412B0C
:10068000422B5F2B7408033E86008701403FF50034
:10069000413FF600740A86008701403FF700413F62
:1006A000F8007808803AF9007608803A7902031D4C
:1006B0005B2B7508770203185E2B5F2B672B740A80
:1006C000860087010130810741310318810A080043
:1006D0002000AC002100261C6E2B6F2B782B2000F5
:1006E0002C08A7002708FA00240882311822833139
:1006F0002000A61B7C2B7D2B822B2608AB00250817
:10070000AA00842BAA01AB01A801A901982B2030D3
:10071000F2000030F30020002C08A7002708F400A6
:1007200083312923833101302000A8070030A93DFF
:100730002908803AA7002B08803A2702031DA22B24
:100740002A082802031CA52BA62B872B210026187C
:10075000AA2BAB2BB42B20002C08A7002708FA00EB
:10076000240882311822833120002408813180211D
:10077000833120002A087007A4002B08713DA500D2
:1007800008002000DD004E0886008701403FD000B1
:10079000413FD10050088400510885001200253ADD
:1007A000031DD32BD42B782C4E08860087010130F3
:1007B000810741310318810A2100A201A301A6018A
:1007C000A701FF30A400FF30A50020004E088600DE
:1007D0008701403FD000413FD100500884005108BC
:1007E00085001200643A0319F62BF72B082C4E08EB
:1007F00086008701403FD000413FD100500884006F
:10080000510885001200693A031D072C082C432C5F
:100810004E08860087010130810741310318810AA3
:100820004F08860087010108840085010230810796
:10083000003FD000013FD1005008D5005108D6003C
:10084000890D893B8909D700D800D900DA00DB007F
:10085000DC005508B0005608B1005708B20058082F
:10086000B3005908B4005A08B5005B08B6005C082C
:10087000B7005D0886318726833120003108CF001C
:100880003008CE009B2C4E0886008701403FD000E8
:10089000413FD10050088400510885001200253ADC
:1008A000031D532C542C6D2C4E08860087010130FB
:1008B000810741310318810A2530F2000030F3002E
:1008C0005D08D0005008F4008331292383310130C2
:1008D0002000CE000030CF009B2C4E088600870100
:1008E0000130810741310318810ACE01CF019B2CD1
:1008F0004E0886008701403FD000413FD10050089C
:100900008400510885000008D200D3015208F2008B
:100910005308F3005D08D4005408F4008331292300
:10092000833120004E088600870101308107413164
:100930000318810A672C0800F20128308600003075
:100940008700473FF000F01FA62CA72CC82C2000E2
:10095000A809A909AA09AB09AC09AD09AE09AF09F3
:10096000A80A031DC62CA90A031DC62CAA0A031D2A
:10097000C62CAB0A031DC62CAC0A031DC62CAD0A3F
:10098000031DC62CAE0A031DC62CAF0AF201F20AE3
:100990002030860000308700473FF000F01FD12C48
:1009A000D22CF12C2000A009A109A209A309A409B5
:1009B000A509A609A709A00A031DF12CA10A031D78
:1009C000F12CA20A031DF12CA30A031DF12CA40A89
:1009D000031DF12CA50A031DF12CA60A031DF12C01
:1009E000A70A20002008210422042304240425044B
:1009F000260427040319FD2CFE2C512DF101F10AC8
:100A00000D2DA035A10DA20DA30DA40DA50DA60DB4
:100A1000A70D0130F0007008F107A71F102D112D50
:100A2000012D27082F02031D2F2D26082E02031D3E
:100A30002F2D25082D02031D2F2D24082C02031D08
:100A40002F2D23082B02031D2F2D22082A02031D00
:100A50002F2D21082902031D2F2D20082802031CF9
:100A6000322D332D432D2008A8022108A93B22084E
:100A7000AA3B2308AB3B2408AC3B2508AD3B26082A
:100A8000AE3B2708AF3BA736A60CA50CA40CA30CC5
:100A9000A20CA10CA00C0130F102031D502D512D10
:100AA000112D72080319552D562D742DA809A90969
:100AB000AA09AB09AC09AD09AE09AF09A80A031D23
:100AC000742DA90A031D742DAA0A031D742DAB0AE7
:100AD000031D742DAC0A031D742DAD0A031D742D66
:100AE000AE0A031D742DAF0A20002808A0002908B3
:100AF000A1002A08A2002B08A3002C08A4002D089E
:100B0000A5002E08A6002F08A7000800F20120303B
:100B1000860000308700473FF000F01F902D912D98
:100B2000B22D2000A009A109A209A309A409A509C1
:100B3000A609A709A00A031DB02DA10A031DB02D07
:100B4000A20A031DB02DA30A031DB02DA40A031D84
:100B5000B02DA50A031DB02DA60A031DB02DA70AAE
:100B6000F201F20A2830860000308700473FF0008B
:100B7000F01FBB2DBC2DDF2D2000A809A909AA0953
:100B8000AB09AC09AD09AE09AF09A80A031DDB2DFD
:100B9000A90A031DDB2DAA0A031DDB2DAB0A031DC9
:100BA000DB2DAC0A031DDB2DAD0A031DDB2DAE0AC8
:100BB000031DDB2DAF0A0130F0007008F206733020
:100BC0008600003087000830F00000301E00F00B77
:100BD000E62D2000200821042204230424042504F7
:100BE000260427040319F52DF62D522EF101F10AE2
:100BF000052EA035A10DA20DA30DA40DA50DA60DCA
:100C0000A70D0130F0007008F107A71F082E092E6C
:100C1000F92DF335F40DF50DF60DF70DF80DF90D71
:100C2000FA0D27082F02031D2F2E26082E02031D62
:100C30002F2E25082D02031D2F2E24082C02031D04
:100C40002F2E23082B02031D2F2E22082A02031DFC
:100C50002F2E21082902031D2F2E20082802031CF5
:100C6000322E332E442E2008A8022108A93B220848
:100C7000AA3B2308AB3B2408AC3B2508AD3B260828
:100C8000AE3B2708AF3B7314A736A60CA50CA40CEB
:100C9000A30CA20CA10CA00C0130F102031D512EDB
:100CA000522E092E72080319562E572E752EF3094F
:100CB000F409F509F609F709F809F909FA09F30A37
:100CC000031D752EF40A031D752EF50A031D752EDE
:100CD000F60A031D752EF70A031D752EF80A031D6B
:100CE000752EF90A031D752EFA0A73082000A0005C
:100CF0007408A1007508A2007608A3007708A40074
:100D00007808A5007908A6007A08A7000800200046
:100D1000BF003008C4003108C5003208C6003308DF
:100D2000C7003408C8003508C9003608CA003708AB
:100D3000CB004430860000308700473FB800B81B26
:100D4000A22EA42E0130A52E00302000B900BA0139
:100D50003908C2003A08C300420843040319B12EFF
:100D6000B22ED02EC409C509C609C709C809C909C8
:100D7000CA09CB09C40A031DD02EC50A031DD02EF3
:100D8000C60A031DD02EC70A031DD02EC80A031D94
:100D9000D02EC90A031DD02ECA0A031DD02ECB0A9D
:100DA0002100A51BD42ED52ED92EFD30A605FF304F
:100DB000A7052508803A2000B80080303802031DBE
:100DC000E42E0130210024020318E72EE82EEE2E37
:100DD00001302000BD000030BE00F62E21002508A5
:100DE0002000BE00210024082000BD0021002308AF
:100DF0002000C100210022082000C0004208430456
:100E0000031D032F042F092F2100261D082F092F52
:100E10000E2FFF302000C007FF30C13D1F302000E3
:100E2000CC000030CD002100C8017E2FFF30200013
:100E3000CC07FF30CD3D0A30A000A101A201A301E3
:100E4000A401A501A601A7014408A8004508A9001E
:100E50004608AA004708AB004808AC004908AD00A6
:100E60004A08AE004B08AF0084319C248631200034
:100E70002108F4002008F30081319921863173089C
:100E8000303E2000B8004C08A93E86008701380893
:100E90008100FF30BD07FF30BE3DFF30C007FF308F
:100EA000C13D0A30A000A101A201A301A401A50136
:100EB000A601A7014408A8004508A9004608AA0001
:100EC0004708AB004808AC004908AD004A08AE002E
:100ED0004B08AF0085318625863120002008C400EC
:100EE0002108C5002208C6002308C7002408C8003E
:100EF0002508C9002608CA002708CB0020004D0895
:100F0000803AB80080303802031D882F01304C022F
:100F1000031C8B2F8C2FB92F200044084504460456
:100F20004704480449044A044B04031D982F992F91
:100F3000162F3E08803AB80080303802031DA22FD9
:100F400001303D020318A52FA62F162F20004108BF
:100F5000803AB80080303802031DB02F01304002C3
:100F6000031CB32FB42FB92F2100A618B82FB92F07
:100F7000162F200042084304031DBF2FC02FC52F8A
:100F80002100261DC42FC52FE12FFF302000CC07E4
:100F9000FF30CD3D42084304031DCF2FD02FD52F66
:100FA0002B30BB000030BC00D92F2D30BB000030EF
:100FB000BC003B08B8004C08A93E860087013808F1
:100FC000810020004C08A93EB8003808A400410860
:100FD000A6004008A5003F08833168238631200021
:100FE0002508B1002408B0000800A03084000030BB
:100FF00085002E308031FC20873120008231F22A9A
:10100000543465346D3470346534723461347434FE
:101010007534723465342034253464340D340A3424
:0210200000349A
:020000040001F9
:04000E00E4FFFFFE0E
:00000001FF
